{
  "contractName": "YangNFT",
  "abi": [
    {
      "inputs": [],
      "stateMutability": "nonpayable",
      "type": "constructor"
    },
    {
      "anonymous": false,
      "inputs": [
        {
          "indexed": true,
          "internalType": "address",
          "name": "owner",
          "type": "address"
        },
        {
          "indexed": true,
          "internalType": "address",
          "name": "approved",
          "type": "address"
        },
        {
          "indexed": true,
          "internalType": "uint256",
          "name": "tokenId",
          "type": "uint256"
        }
      ],
      "name": "Approval",
      "type": "event"
    },
    {
      "anonymous": false,
      "inputs": [
        {
          "indexed": true,
          "internalType": "address",
          "name": "owner",
          "type": "address"
        },
        {
          "indexed": true,
          "internalType": "address",
          "name": "operator",
          "type": "address"
        },
        {
          "indexed": false,
          "internalType": "bool",
          "name": "approved",
          "type": "bool"
        }
      ],
      "name": "ApprovalForAll",
      "type": "event"
    },
    {
      "anonymous": false,
      "inputs": [
        {
          "indexed": true,
          "internalType": "bytes32",
          "name": "role",
          "type": "bytes32"
        },
        {
          "indexed": true,
          "internalType": "bytes32",
          "name": "previousAdminRole",
          "type": "bytes32"
        },
        {
          "indexed": true,
          "internalType": "bytes32",
          "name": "newAdminRole",
          "type": "bytes32"
        }
      ],
      "name": "RoleAdminChanged",
      "type": "event"
    },
    {
      "anonymous": false,
      "inputs": [
        {
          "indexed": true,
          "internalType": "bytes32",
          "name": "role",
          "type": "bytes32"
        },
        {
          "indexed": true,
          "internalType": "address",
          "name": "account",
          "type": "address"
        },
        {
          "indexed": true,
          "internalType": "address",
          "name": "sender",
          "type": "address"
        }
      ],
      "name": "RoleGranted",
      "type": "event"
    },
    {
      "anonymous": false,
      "inputs": [
        {
          "indexed": true,
          "internalType": "bytes32",
          "name": "role",
          "type": "bytes32"
        },
        {
          "indexed": true,
          "internalType": "address",
          "name": "account",
          "type": "address"
        },
        {
          "indexed": true,
          "internalType": "address",
          "name": "sender",
          "type": "address"
        }
      ],
      "name": "RoleRevoked",
      "type": "event"
    },
    {
      "anonymous": false,
      "inputs": [
        {
          "indexed": true,
          "internalType": "address",
          "name": "from",
          "type": "address"
        },
        {
          "indexed": true,
          "internalType": "address",
          "name": "to",
          "type": "address"
        },
        {
          "indexed": true,
          "internalType": "uint256",
          "name": "tokenId",
          "type": "uint256"
        }
      ],
      "name": "Transfer",
      "type": "event"
    },
    {
      "inputs": [],
      "name": "DEFAULT_ADMIN_ROLE",
      "outputs": [
        {
          "internalType": "bytes32",
          "name": "",
          "type": "bytes32"
        }
      ],
      "stateMutability": "view",
      "type": "function",
      "constant": true
    },
    {
      "inputs": [
        {
          "internalType": "address",
          "name": "to",
          "type": "address"
        },
        {
          "internalType": "uint256",
          "name": "tokenId",
          "type": "uint256"
        }
      ],
      "name": "approve",
      "outputs": [],
      "stateMutability": "nonpayable",
      "type": "function"
    },
    {
      "inputs": [
        {
          "internalType": "address",
          "name": "owner",
          "type": "address"
        }
      ],
      "name": "balanceOf",
      "outputs": [
        {
          "internalType": "uint256",
          "name": "",
          "type": "uint256"
        }
      ],
      "stateMutability": "view",
      "type": "function",
      "constant": true
    },
    {
      "inputs": [],
      "name": "baseTokenURI",
      "outputs": [
        {
          "internalType": "string",
          "name": "",
          "type": "string"
        }
      ],
      "stateMutability": "view",
      "type": "function",
      "constant": true
    },
    {
      "inputs": [
        {
          "internalType": "uint256",
          "name": "tokenId",
          "type": "uint256"
        }
      ],
      "name": "getApproved",
      "outputs": [
        {
          "internalType": "address",
          "name": "",
          "type": "address"
        }
      ],
      "stateMutability": "view",
      "type": "function",
      "constant": true
    },
    {
      "inputs": [
        {
          "internalType": "bytes32",
          "name": "role",
          "type": "bytes32"
        }
      ],
      "name": "getRoleAdmin",
      "outputs": [
        {
          "internalType": "bytes32",
          "name": "",
          "type": "bytes32"
        }
      ],
      "stateMutability": "view",
      "type": "function",
      "constant": true
    },
    {
      "inputs": [
        {
          "internalType": "bytes32",
          "name": "role",
          "type": "bytes32"
        },
        {
          "internalType": "address",
          "name": "account",
          "type": "address"
        }
      ],
      "name": "grantRole",
      "outputs": [],
      "stateMutability": "nonpayable",
      "type": "function"
    },
    {
      "inputs": [
        {
          "internalType": "bytes32",
          "name": "role",
          "type": "bytes32"
        },
        {
          "internalType": "address",
          "name": "account",
          "type": "address"
        }
      ],
      "name": "hasRole",
      "outputs": [
        {
          "internalType": "bool",
          "name": "",
          "type": "bool"
        }
      ],
      "stateMutability": "view",
      "type": "function",
      "constant": true
    },
    {
      "inputs": [
        {
          "internalType": "address",
          "name": "owner",
          "type": "address"
        },
        {
          "internalType": "address",
          "name": "operator",
          "type": "address"
        }
      ],
      "name": "isApprovedForAll",
      "outputs": [
        {
          "internalType": "bool",
          "name": "",
          "type": "bool"
        }
      ],
      "stateMutability": "view",
      "type": "function",
      "constant": true
    },
    {
      "inputs": [],
      "name": "name",
      "outputs": [
        {
          "internalType": "string",
          "name": "",
          "type": "string"
        }
      ],
      "stateMutability": "view",
      "type": "function",
      "constant": true
    },
    {
      "inputs": [
        {
          "internalType": "uint256",
          "name": "tokenId",
          "type": "uint256"
        }
      ],
      "name": "ownerOf",
      "outputs": [
        {
          "internalType": "address",
          "name": "",
          "type": "address"
        }
      ],
      "stateMutability": "view",
      "type": "function",
      "constant": true
    },
    {
      "inputs": [],
      "name": "price",
      "outputs": [
        {
          "internalType": "uint256",
          "name": "",
          "type": "uint256"
        }
      ],
      "stateMutability": "view",
      "type": "function",
      "constant": true
    },
    {
      "inputs": [
        {
          "internalType": "bytes32",
          "name": "role",
          "type": "bytes32"
        },
        {
          "internalType": "address",
          "name": "account",
          "type": "address"
        }
      ],
      "name": "renounceRole",
      "outputs": [],
      "stateMutability": "nonpayable",
      "type": "function"
    },
    {
      "inputs": [
        {
          "internalType": "bytes32",
          "name": "role",
          "type": "bytes32"
        },
        {
          "internalType": "address",
          "name": "account",
          "type": "address"
        }
      ],
      "name": "revokeRole",
      "outputs": [],
      "stateMutability": "nonpayable",
      "type": "function"
    },
    {
      "inputs": [
        {
          "internalType": "address",
          "name": "from",
          "type": "address"
        },
        {
          "internalType": "address",
          "name": "to",
          "type": "address"
        },
        {
          "internalType": "uint256",
          "name": "tokenId",
          "type": "uint256"
        }
      ],
      "name": "safeTransferFrom",
      "outputs": [],
      "stateMutability": "nonpayable",
      "type": "function"
    },
    {
      "inputs": [
        {
          "internalType": "address",
          "name": "from",
          "type": "address"
        },
        {
          "internalType": "address",
          "name": "to",
          "type": "address"
        },
        {
          "internalType": "uint256",
          "name": "tokenId",
          "type": "uint256"
        },
        {
          "internalType": "bytes",
          "name": "_data",
          "type": "bytes"
        }
      ],
      "name": "safeTransferFrom",
      "outputs": [],
      "stateMutability": "nonpayable",
      "type": "function"
    },
    {
      "inputs": [
        {
          "internalType": "address",
          "name": "operator",
          "type": "address"
        },
        {
          "internalType": "bool",
          "name": "approved",
          "type": "bool"
        }
      ],
      "name": "setApprovalForAll",
      "outputs": [],
      "stateMutability": "nonpayable",
      "type": "function"
    },
    {
      "inputs": [],
      "name": "symbol",
      "outputs": [
        {
          "internalType": "string",
          "name": "",
          "type": "string"
        }
      ],
      "stateMutability": "view",
      "type": "function",
      "constant": true
    },
    {
      "inputs": [
        {
          "internalType": "uint256",
          "name": "tokenId",
          "type": "uint256"
        }
      ],
      "name": "tokenURI",
      "outputs": [
        {
          "internalType": "string",
          "name": "",
          "type": "string"
        }
      ],
      "stateMutability": "view",
      "type": "function",
      "constant": true
    },
    {
      "inputs": [
        {
          "internalType": "address",
          "name": "from",
          "type": "address"
        },
        {
          "internalType": "address",
          "name": "to",
          "type": "address"
        },
        {
          "internalType": "uint256",
          "name": "tokenId",
          "type": "uint256"
        }
      ],
      "name": "transferFrom",
      "outputs": [],
      "stateMutability": "nonpayable",
      "type": "function"
    },
    {
      "inputs": [
        {
          "internalType": "bytes4",
          "name": "interfaceId",
          "type": "bytes4"
        }
      ],
      "name": "supportsInterface",
      "outputs": [
        {
          "internalType": "bool",
          "name": "",
          "type": "bool"
        }
      ],
      "stateMutability": "view",
      "type": "function",
      "constant": true
    },
    {
      "inputs": [
        {
          "internalType": "string",
          "name": "baseURI",
          "type": "string"
        }
      ],
      "name": "setBaseURI",
      "outputs": [],
      "stateMutability": "nonpayable",
      "type": "function"
    },
    {
      "inputs": [
        {
          "internalType": "uint256",
          "name": "_price",
          "type": "uint256"
        }
      ],
      "name": "setPrice",
      "outputs": [],
      "stateMutability": "nonpayable",
      "type": "function"
    },
    {
      "inputs": [
        {
          "internalType": "address",
          "name": "cfo",
          "type": "address"
        }
      ],
      "name": "setCFO",
      "outputs": [],
      "stateMutability": "nonpayable",
      "type": "function"
    },
    {
      "inputs": [],
      "name": "mint",
      "outputs": [],
      "stateMutability": "payable",
      "type": "function",
      "payable": true
    },
    {
      "inputs": [],
      "name": "withdraw",
      "outputs": [],
      "stateMutability": "nonpayable",
      "type": "function"
    }
  ],
  "bytecode": "0x60806040526103e960075560405180606001604052806036815260200162003e5f60369139600890805190602001906200003b929190620002bd565b50662386f26fc100006009553480156200005457600080fd5b506040518060400160405280600781526020017f59616e674e4654000000000000000000000000000000000000000000000000008152506040518060400160405280600481526020017f594e4654000000000000000000000000000000000000000000000000000000008152508160009080519060200190620000d9929190620002bd565b508060019080519060200190620000f2929190620002bd565b5050506200010a6000801b336200014260201b60201c565b6200013c7fa3096443b30f1eec162a8cf66862cf662a85fd0e4fd35a824b183bfeac968c32336200014260201b60201c565b620003d2565b6200015482826200015860201b60201c565b5050565b6200016a82826200024a60201b60201c565b620002465760016006600084815260200190815260200160002060000160008373ffffffffffffffffffffffffffffffffffffffff1673ffffffffffffffffffffffffffffffffffffffff16815260200190815260200160002060006101000a81548160ff021916908315150217905550620001eb620002b560201b60201c565b73ffffffffffffffffffffffffffffffffffffffff168173ffffffffffffffffffffffffffffffffffffffff16837f2f8788117e7eff1d82e926ec794901d17c78024a50270940304540a733656f0d60405160405180910390a45b5050565b60006006600084815260200190815260200160002060000160008373ffffffffffffffffffffffffffffffffffffffff1673ffffffffffffffffffffffffffffffffffffffff16815260200190815260200160002060009054906101000a900460ff16905092915050565b600033905090565b828054620002cb906200036d565b90600052602060002090601f016020900481019282620002ef57600085556200033b565b82601f106200030a57805160ff19168380011785556200033b565b828001600101855582156200033b579182015b828111156200033a5782518255916020019190600101906200031d565b5b5090506200034a91906200034e565b5090565b5b80821115620003695760008160009055506001016200034f565b5090565b600060028204905060018216806200038657607f821691505b602082108114156200039d576200039c620003a3565b5b50919050565b7f4e487b7100000000000000000000000000000000000000000000000000000000600052602260045260246000fd5b613a7d80620003e26000396000f3fe6080604052600436106101815760003560e01c80636352211e116100d1578063a217fddf1161008a578063c87b56dd11610064578063c87b56dd1461055b578063d547741f14610598578063d547cfb7146105c1578063e985e9c5146105ec57610181565b8063a217fddf146104de578063a22cb46514610509578063b88d4fde1461053257610181565b80636352211e146103a857806370a08231146103e557806391b7f5ed1461042257806391d148541461044b57806395d89b4114610488578063a035b1fe146104b357610181565b8063248a9ca31161013e5780633ccfd60b116101185780633ccfd60b1461031657806342842e0e1461032d5780634e0a33791461035657806355f804b31461037f57610181565b8063248a9ca3146102875780632f2ff15d146102c457806336568abe146102ed57610181565b806301ffc9a71461018657806306fdde03146101c3578063081812fc146101ee578063095ea7b31461022b5780631249c58b1461025457806323b872dd1461025e575b600080fd5b34801561019257600080fd5b506101ad60048036038101906101a8919061288d565b610629565b6040516101ba9190613275565b60405180910390f35b3480156101cf57600080fd5b506101d861063b565b6040516101e591906132ab565b60405180910390f35b3480156101fa57600080fd5b5061021560048036038101906102109190612920565b6106cd565b604051610222919061320e565b60405180910390f35b34801561023757600080fd5b50610252600480360381019061024d91906127ec565b610752565b005b61025c61086a565b005b34801561026a57600080fd5b50610285600480360381019061028091906126e6565b61092c565b005b34801561029357600080fd5b506102ae60048036038101906102a99190612828565b61098c565b6040516102bb9190613290565b60405180910390f35b3480156102d057600080fd5b506102eb60048036038101906102e69190612851565b6109ac565b005b3480156102f957600080fd5b50610314600480360381019061030f9190612851565b6109d5565b005b34801561032257600080fd5b5061032b610a58565b005b34801561033957600080fd5b50610354600480360381019061034f91906126e6565b610af3565b005b34801561036257600080fd5b5061037d60048036038101906103789190612681565b610b13565b005b34801561038b57600080fd5b506103a660048036038101906103a191906128df565b610b40565b005b3480156103b457600080fd5b506103cf60048036038101906103ca9190612920565b610ba6565b6040516103dc919061320e565b60405180910390f35b3480156103f157600080fd5b5061040c60048036038101906104079190612681565b610c58565b604051610419919061356d565b60405180910390f35b34801561042e57600080fd5b5061044960048036038101906104449190612920565b610d10565b005b34801561045757600080fd5b50610472600480360381019061046d9190612851565b610d83565b60405161047f9190613275565b60405180910390f35b34801561049457600080fd5b5061049d610dee565b6040516104aa91906132ab565b60405180910390f35b3480156104bf57600080fd5b506104c8610e80565b6040516104d5919061356d565b60405180910390f35b3480156104ea57600080fd5b506104f3610e86565b6040516105009190613290565b60405180910390f35b34801561051557600080fd5b50610530600480360381019061052b91906127b0565b610e8d565b005b34801561053e57600080fd5b5061055960048036038101906105549190612735565b61100e565b005b34801561056757600080fd5b50610582600480360381019061057d9190612920565b611070565b60405161058f91906132ab565b60405180910390f35b3480156105a457600080fd5b506105bf60048036038101906105ba9190612851565b611117565b005b3480156105cd57600080fd5b506105d6611140565b6040516105e391906132ab565b60405180910390f35b3480156105f857600080fd5b50610613600480360381019061060e91906126aa565b6111ce565b6040516106209190613275565b60405180910390f35b600061063482611262565b9050919050565b60606000805461064a9061385b565b80601f01602080910402602001604051908101604052809291908181526020018280546106769061385b565b80156106c35780601f10610698576101008083540402835291602001916106c3565b820191906000526020600020905b8154815290600101906020018083116106a657829003601f168201915b5050505050905090565b60006106d8826112dc565b610717576040517f08c379a000000000000000000000000000000000000000000000000000000000815260040161070e9061346d565b60405180910390fd5b6004600083815260200190815260200160002060009054906101000a900473ffffffffffffffffffffffffffffffffffffffff169050919050565b600061075d82610ba6565b90508073ffffffffffffffffffffffffffffffffffffffff168373ffffffffffffffffffffffffffffffffffffffff1614156107ce576040517f08c379a00000000000000000000000000000000000000000000000000000000081526004016107c5906134ed565b60405180910390fd5b8073ffffffffffffffffffffffffffffffffffffffff166107ed611348565b73ffffffffffffffffffffffffffffffffffffffff16148061081c575061081b81610816611348565b6111ce565b5b61085b576040517f08c379a0000000000000000000000000000000000000000000000000000000008152600401610852906133cd565b60405180910390fd5b6108658383611350565b505050565b6103e9611f4061087a919061365c565b600754106108bd576040517f08c379a00000000000000000000000000000000000000000000000000000000081526004016108b4906134ad565b60405180910390fd5b600954341015610902576040517f08c379a00000000000000000000000000000000000000000000000000000000081526004016108f99061342d565b60405180910390fd5b61090e33600754611409565b610924600160075461142790919063ffffffff16565b600781905550565b61093d610937611348565b8261143d565b61097c576040517f08c379a00000000000000000000000000000000000000000000000000000000081526004016109739061350d565b60405180910390fd5b61098783838361151b565b505050565b600060066000838152602001908152602001600020600101549050919050565b6109b58261098c565b6109c6816109c1611348565b611777565b6109d08383611814565b505050565b6109dd611348565b73ffffffffffffffffffffffffffffffffffffffff168173ffffffffffffffffffffffffffffffffffffffff1614610a4a576040517f08c379a0000000000000000000000000000000000000000000000000000000008152600401610a419061354d565b60405180910390fd5b610a5482826118f5565b5050565b610a656000801b33610d83565b610aa4576040517f08c379a0000000000000000000000000000000000000000000000000000000008152600401610a9b9061352d565b60405180910390fd5b60004790503373ffffffffffffffffffffffffffffffffffffffff166108fc829081150290604051600060405180830381858888f19350505050158015610aef573d6000803e3d6000fd5b5050565b610b0e8383836040518060200160405280600081525061100e565b505050565b610b3d7fa3096443b30f1eec162a8cf66862cf662a85fd0e4fd35a824b183bfeac968c32826109ac565b50565b610b4d6000801b33610d83565b610b8c576040517f08c379a0000000000000000000000000000000000000000000000000000000008152600401610b839061338d565b60405180910390fd5b8060089080519060200190610ba2929190612490565b5050565b6000806002600084815260200190815260200160002060009054906101000a900473ffffffffffffffffffffffffffffffffffffffff169050600073ffffffffffffffffffffffffffffffffffffffff168173ffffffffffffffffffffffffffffffffffffffff161415610c4f576040517f08c379a0000000000000000000000000000000000000000000000000000000008152600401610c469061340d565b60405180910390fd5b80915050919050565b60008073ffffffffffffffffffffffffffffffffffffffff168273ffffffffffffffffffffffffffffffffffffffff161415610cc9576040517f08c379a0000000000000000000000000000000000000000000000000000000008152600401610cc0906133ed565b60405180910390fd5b600360008373ffffffffffffffffffffffffffffffffffffffff1673ffffffffffffffffffffffffffffffffffffffff168152602001908152602001600020549050919050565b610d3a7fa3096443b30f1eec162a8cf66862cf662a85fd0e4fd35a824b183bfeac968c3233610d83565b610d79576040517f08c379a0000000000000000000000000000000000000000000000000000000008152600401610d709061332d565b60405180910390fd5b8060098190555050565b60006006600084815260200190815260200160002060000160008373ffffffffffffffffffffffffffffffffffffffff1673ffffffffffffffffffffffffffffffffffffffff16815260200190815260200160002060009054906101000a900460ff16905092915050565b606060018054610dfd9061385b565b80601f0160208091040260200160405190810160405280929190818152602001828054610e299061385b565b8015610e765780601f10610e4b57610100808354040283529160200191610e76565b820191906000526020600020905b815481529060010190602001808311610e5957829003601f168201915b5050505050905090565b60095481565b6000801b81565b610e95611348565b73ffffffffffffffffffffffffffffffffffffffff168273ffffffffffffffffffffffffffffffffffffffff161415610f03576040517f08c379a0000000000000000000000000000000000000000000000000000000008152600401610efa9061336d565b60405180910390fd5b8060056000610f10611348565b73ffffffffffffffffffffffffffffffffffffffff1673ffffffffffffffffffffffffffffffffffffffff16815260200190815260200160002060008473ffffffffffffffffffffffffffffffffffffffff1673ffffffffffffffffffffffffffffffffffffffff16815260200190815260200160002060006101000a81548160ff0219169083151502179055508173ffffffffffffffffffffffffffffffffffffffff16610fbd611348565b73ffffffffffffffffffffffffffffffffffffffff167f17307eab39ab6107e8899845ad3d59bd9653f200f220920489ca2b5937696c31836040516110029190613275565b60405180910390a35050565b61101f611019611348565b8361143d565b61105e576040517f08c379a00000000000000000000000000000000000000000000000000000000081526004016110559061350d565b60405180910390fd5b61106a848484846119d7565b50505050565b606061107b826112dc565b6110ba576040517f08c379a00000000000000000000000000000000000000000000000000000000081526004016110b1906134cd565b60405180910390fd5b60006110c4611a33565b905060008151116110e4576040518060200160405280600081525061110f565b806110ee84611ac5565b6040516020016110ff9291906131b0565b6040516020818303038152906040525b915050919050565b6111208261098c565b6111318161112c611348565b611777565b61113b83836118f5565b505050565b6008805461114d9061385b565b80601f01602080910402602001604051908101604052809291908181526020018280546111799061385b565b80156111c65780601f1061119b576101008083540402835291602001916111c6565b820191906000526020600020905b8154815290600101906020018083116111a957829003601f168201915b505050505081565b6000600560008473ffffffffffffffffffffffffffffffffffffffff1673ffffffffffffffffffffffffffffffffffffffff16815260200190815260200160002060008373ffffffffffffffffffffffffffffffffffffffff1673ffffffffffffffffffffffffffffffffffffffff16815260200190815260200160002060009054906101000a900460ff16905092915050565b60007f7965db0b000000000000000000000000000000000000000000000000000000007bffffffffffffffffffffffffffffffffffffffffffffffffffffffff1916827bffffffffffffffffffffffffffffffffffffffffffffffffffffffff191614806112d557506112d482611c72565b5b9050919050565b60008073ffffffffffffffffffffffffffffffffffffffff166002600084815260200190815260200160002060009054906101000a900473ffffffffffffffffffffffffffffffffffffffff1673ffffffffffffffffffffffffffffffffffffffff1614159050919050565b600033905090565b816004600083815260200190815260200160002060006101000a81548173ffffffffffffffffffffffffffffffffffffffff021916908373ffffffffffffffffffffffffffffffffffffffff160217905550808273ffffffffffffffffffffffffffffffffffffffff166113c383610ba6565b73ffffffffffffffffffffffffffffffffffffffff167f8c5be1e5ebec7d5bd14f71427d1e84f3dd0314c0f7b2291e5b200ac8c7c3b92560405160405180910390a45050565b611423828260405180602001604052806000815250611d54565b5050565b60008183611435919061365c565b905092915050565b6000611448826112dc565b611487576040517f08c379a000000000000000000000000000000000000000000000000000000000815260040161147e906133ad565b60405180910390fd5b600061149283610ba6565b90508073ffffffffffffffffffffffffffffffffffffffff168473ffffffffffffffffffffffffffffffffffffffff16148061150157508373ffffffffffffffffffffffffffffffffffffffff166114e9846106cd565b73ffffffffffffffffffffffffffffffffffffffff16145b80611512575061151181856111ce565b5b91505092915050565b8273ffffffffffffffffffffffffffffffffffffffff1661153b82610ba6565b73ffffffffffffffffffffffffffffffffffffffff1614611591576040517f08c379a00000000000000000000000000000000000000000000000000000000081526004016115889061348d565b60405180910390fd5b600073ffffffffffffffffffffffffffffffffffffffff168273ffffffffffffffffffffffffffffffffffffffff161415611601576040517f08c379a00000000000000000000000000000000000000000000000000000000081526004016115f89061334d565b60405180910390fd5b61160c838383611daf565b611617600082611350565b6001600360008573ffffffffffffffffffffffffffffffffffffffff1673ffffffffffffffffffffffffffffffffffffffff1681526020019081526020016000206000828254611667919061373d565b925050819055506001600360008473ffffffffffffffffffffffffffffffffffffffff1673ffffffffffffffffffffffffffffffffffffffff16815260200190815260200160002060008282546116be919061365c565b92505081905550816002600083815260200190815260200160002060006101000a81548173ffffffffffffffffffffffffffffffffffffffff021916908373ffffffffffffffffffffffffffffffffffffffff160217905550808273ffffffffffffffffffffffffffffffffffffffff168473ffffffffffffffffffffffffffffffffffffffff167fddf252ad1be2c89b69c2b068fc378daa952ba7f163c4a11628f55a4df523b3ef60405160405180910390a4505050565b6117818282610d83565b611810576117a68173ffffffffffffffffffffffffffffffffffffffff166014611db4565b6117b48360001c6020611db4565b6040516020016117c59291906131d4565b6040516020818303038152906040526040517f08c379a000000000000000000000000000000000000000000000000000000000815260040161180791906132ab565b60405180910390fd5b5050565b61181e8282610d83565b6118f15760016006600084815260200190815260200160002060000160008373ffffffffffffffffffffffffffffffffffffffff1673ffffffffffffffffffffffffffffffffffffffff16815260200190815260200160002060006101000a81548160ff021916908315150217905550611896611348565b73ffffffffffffffffffffffffffffffffffffffff168173ffffffffffffffffffffffffffffffffffffffff16837f2f8788117e7eff1d82e926ec794901d17c78024a50270940304540a733656f0d60405160405180910390a45b5050565b6118ff8282610d83565b156119d35760006006600084815260200190815260200160002060000160008373ffffffffffffffffffffffffffffffffffffffff1673ffffffffffffffffffffffffffffffffffffffff16815260200190815260200160002060006101000a81548160ff021916908315150217905550611978611348565b73ffffffffffffffffffffffffffffffffffffffff168173ffffffffffffffffffffffffffffffffffffffff16837ff6391f5c32d9c69d2a47ea670b442974b53935d1edc7fd64eb21e047a839171b60405160405180910390a45b5050565b6119e284848461151b565b6119ee848484846120ae565b611a2d576040517f08c379a0000000000000000000000000000000000000000000000000000000008152600401611a24906132ed565b60405180910390fd5b50505050565b606060088054611a429061385b565b80601f0160208091040260200160405190810160405280929190818152602001828054611a6e9061385b565b8015611abb5780601f10611a9057610100808354040283529160200191611abb565b820191906000526020600020905b815481529060010190602001808311611a9e57829003601f168201915b5050505050905090565b60606000821415611b0d576040518060400160405280600181526020017f30000000000000000000000000000000000000000000000000000000000000008152509050611c6d565b600082905060005b60008214611b3f578080611b289061388d565b915050600a82611b3891906136b2565b9150611b15565b60008167ffffffffffffffff811115611b81577f4e487b7100000000000000000000000000000000000000000000000000000000600052604160045260246000fd5b6040519080825280601f01601f191660200182016040528015611bb35781602001600182028036833780820191505090505b5090505b60008514611c6657600182611bcc919061373d565b9150600a85611bdb91906138d6565b6030611be7919061365c565b60f81b818381518110611c23577f4e487b7100000000000000000000000000000000000000000000000000000000600052603260045260246000fd5b60200101907effffffffffffffffffffffffffffffffffffffffffffffffffffffffffffff1916908160001a905350600a85611c5f91906136b2565b9450611bb7565b8093505050505b919050565b60007f80ac58cd000000000000000000000000000000000000000000000000000000007bffffffffffffffffffffffffffffffffffffffffffffffffffffffff1916827bffffffffffffffffffffffffffffffffffffffffffffffffffffffff19161480611d3d57507f5b5e139f000000000000000000000000000000000000000000000000000000007bffffffffffffffffffffffffffffffffffffffffffffffffffffffff1916827bffffffffffffffffffffffffffffffffffffffffffffffffffffffff1916145b80611d4d5750611d4c82612245565b5b9050919050565b611d5e83836122af565b611d6b60008484846120ae565b611daa576040517f08c379a0000000000000000000000000000000000000000000000000000000008152600401611da1906132ed565b60405180910390fd5b505050565b505050565b606060006002836002611dc791906136e3565b611dd1919061365c565b67ffffffffffffffff811115611e10577f4e487b7100000000000000000000000000000000000000000000000000000000600052604160045260246000fd5b6040519080825280601f01601f191660200182016040528015611e425781602001600182028036833780820191505090505b5090507f300000000000000000000000000000000000000000000000000000000000000081600081518110611ea0577f4e487b7100000000000000000000000000000000000000000000000000000000600052603260045260246000fd5b60200101907effffffffffffffffffffffffffffffffffffffffffffffffffffffffffffff1916908160001a9053507f780000000000000000000000000000000000000000000000000000000000000081600181518110611f2a577f4e487b7100000000000000000000000000000000000000000000000000000000600052603260045260246000fd5b60200101907effffffffffffffffffffffffffffffffffffffffffffffffffffffffffffff1916908160001a90535060006001846002611f6a91906136e3565b611f74919061365c565b90505b6001811115612060577f3031323334353637383961626364656600000000000000000000000000000000600f861660108110611fdc577f4e487b7100000000000000000000000000000000000000000000000000000000600052603260045260246000fd5b1a60f81b828281518110612019577f4e487b7100000000000000000000000000000000000000000000000000000000600052603260045260246000fd5b60200101907effffffffffffffffffffffffffffffffffffffffffffffffffffffffffffff1916908160001a905350600485901c94508061205990613831565b9050611f77565b50600084146120a4576040517f08c379a000000000000000000000000000000000000000000000000000000000815260040161209b906132cd565b60405180910390fd5b8091505092915050565b60006120cf8473ffffffffffffffffffffffffffffffffffffffff1661247d565b15612238578373ffffffffffffffffffffffffffffffffffffffff1663150b7a026120f8611348565b8786866040518563ffffffff1660e01b815260040161211a9493929190613229565b602060405180830381600087803b15801561213457600080fd5b505af192505050801561216557506040513d601f19601f8201168201806040525081019061216291906128b6565b60015b6121e8573d8060008114612195576040519150601f19603f3d011682016040523d82523d6000602084013e61219a565b606091505b506000815114156121e0576040517f08c379a00000000000000000000000000000000000000000000000000000000081526004016121d7906132ed565b60405180910390fd5b805181602001fd5b63150b7a0260e01b7bffffffffffffffffffffffffffffffffffffffffffffffffffffffff1916817bffffffffffffffffffffffffffffffffffffffffffffffffffffffff19161491505061223d565b600190505b949350505050565b60007f01ffc9a7000000000000000000000000000000000000000000000000000000007bffffffffffffffffffffffffffffffffffffffffffffffffffffffff1916827bffffffffffffffffffffffffffffffffffffffffffffffffffffffff1916149050919050565b600073ffffffffffffffffffffffffffffffffffffffff168273ffffffffffffffffffffffffffffffffffffffff16141561231f576040517f08c379a00000000000000000000000000000000000000000000000000000000081526004016123169061344d565b60405180910390fd5b612328816112dc565b15612368576040517f08c379a000000000000000000000000000000000000000000000000000000000815260040161235f9061330d565b60405180910390fd5b61237460008383611daf565b6001600360008473ffffffffffffffffffffffffffffffffffffffff1673ffffffffffffffffffffffffffffffffffffffff16815260200190815260200160002060008282546123c4919061365c565b92505081905550816002600083815260200190815260200160002060006101000a81548173ffffffffffffffffffffffffffffffffffffffff021916908373ffffffffffffffffffffffffffffffffffffffff160217905550808273ffffffffffffffffffffffffffffffffffffffff16600073ffffffffffffffffffffffffffffffffffffffff167fddf252ad1be2c89b69c2b068fc378daa952ba7f163c4a11628f55a4df523b3ef60405160405180910390a45050565b600080823b905060008111915050919050565b82805461249c9061385b565b90600052602060002090601f0160209004810192826124be5760008555612505565b82601f106124d757805160ff1916838001178555612505565b82800160010185558215612505579182015b828111156125045782518255916020019190600101906124e9565b5b5090506125129190612516565b5090565b5b8082111561252f576000816000905550600101612517565b5090565b6000612546612541846135b9565b613588565b90508281526020810184848401111561255e57600080fd5b6125698482856137ef565b509392505050565b600061258461257f846135e9565b613588565b90508281526020810184848401111561259c57600080fd5b6125a78482856137ef565b509392505050565b6000813590506125be816139d4565b92915050565b6000813590506125d3816139eb565b92915050565b6000813590506125e881613a02565b92915050565b6000813590506125fd81613a19565b92915050565b60008151905061261281613a19565b92915050565b600082601f83011261262957600080fd5b8135612639848260208601612533565b91505092915050565b600082601f83011261265357600080fd5b8135612663848260208601612571565b91505092915050565b60008135905061267b81613a30565b92915050565b60006020828403121561269357600080fd5b60006126a1848285016125af565b91505092915050565b600080604083850312156126bd57600080fd5b60006126cb858286016125af565b92505060206126dc858286016125af565b9150509250929050565b6000806000606084860312156126fb57600080fd5b6000612709868287016125af565b935050602061271a868287016125af565b925050604061272b8682870161266c565b9150509250925092565b6000806000806080858703121561274b57600080fd5b6000612759878288016125af565b945050602061276a878288016125af565b935050604061277b8782880161266c565b925050606085013567ffffffffffffffff81111561279857600080fd5b6127a487828801612618565b91505092959194509250565b600080604083850312156127c357600080fd5b60006127d1858286016125af565b92505060206127e2858286016125c4565b9150509250929050565b600080604083850312156127ff57600080fd5b600061280d858286016125af565b925050602061281e8582860161266c565b9150509250929050565b60006020828403121561283a57600080fd5b6000612848848285016125d9565b91505092915050565b6000806040838503121561286457600080fd5b6000612872858286016125d9565b9250506020612883858286016125af565b9150509250929050565b60006020828403121561289f57600080fd5b60006128ad848285016125ee565b91505092915050565b6000602082840312156128c857600080fd5b60006128d684828501612603565b91505092915050565b6000602082840312156128f157600080fd5b600082013567ffffffffffffffff81111561290b57600080fd5b61291784828501612642565b91505092915050565b60006020828403121561293257600080fd5b60006129408482850161266c565b91505092915050565b61295281613771565b82525050565b61296181613783565b82525050565b6129708161378f565b82525050565b600061298182613619565b61298b818561362f565b935061299b8185602086016137fe565b6129a4816139c3565b840191505092915050565b60006129ba82613624565b6129c48185613640565b93506129d48185602086016137fe565b6129dd816139c3565b840191505092915050565b60006129f382613624565b6129fd8185613651565b9350612a0d8185602086016137fe565b80840191505092915050565b6000612a26602083613640565b91507f537472696e67733a20686578206c656e67746820696e73756666696369656e746000830152602082019050919050565b6000612a66603283613640565b91507f4552433732313a207472616e7366657220746f206e6f6e20455243373231526560008301527f63656976657220696d706c656d656e74657200000000000000000000000000006020830152604082019050919050565b6000612acc601c83613640565b91507f4552433732313a20746f6b656e20616c7265616479206d696e746564000000006000830152602082019050919050565b6000612b0c601783613640565b91507f6f6e6c792043464f2063616e20736574207072696365210000000000000000006000830152602082019050919050565b6000612b4c602483613640565b91507f4552433732313a207472616e7366657220746f20746865207a65726f2061646460008301527f72657373000000000000000000000000000000000000000000000000000000006020830152604082019050919050565b6000612bb2601983613640565b91507f4552433732313a20617070726f766520746f2063616c6c6572000000000000006000830152602082019050919050565b6000612bf2601b83613640565b91507f6f6e6c792061646d696e2063616e2073657420426173655552492100000000006000830152602082019050919050565b6000612c32602c83613640565b91507f4552433732313a206f70657261746f7220717565727920666f72206e6f6e657860008301527f697374656e7420746f6b656e00000000000000000000000000000000000000006020830152604082019050919050565b6000612c98603883613640565b91507f4552433732313a20617070726f76652063616c6c6572206973206e6f74206f7760008301527f6e6572206e6f7220617070726f76656420666f7220616c6c00000000000000006020830152604082019050919050565b6000612cfe602a83613640565b91507f4552433732313a2062616c616e636520717565727920666f7220746865207a6560008301527f726f2061646472657373000000000000000000000000000000000000000000006020830152604082019050919050565b6000612d64602983613640565b91507f4552433732313a206f776e657220717565727920666f72206e6f6e657869737460008301527f656e7420746f6b656e00000000000000000000000000000000000000000000006020830152604082019050919050565b6000612dca602083613640565b91507f45746865722076616c75652073656e74206973206e6f7420636f7272656374216000830152602082019050919050565b6000612e0a602083613640565b91507f4552433732313a206d696e7420746f20746865207a65726f20616464726573736000830152602082019050919050565b6000612e4a602c83613640565b91507f4552433732313a20617070726f76656420717565727920666f72206e6f6e657860008301527f697374656e7420746f6b656e00000000000000000000000000000000000000006020830152604082019050919050565b6000612eb0602983613640565b91507f4552433732313a207472616e73666572206f6620746f6b656e2074686174206960008301527f73206e6f74206f776e00000000000000000000000000000000000000000000006020830152604082019050919050565b6000612f16601783613640565b91507f746f6b656e496e646578206f7574206f662073636f70650000000000000000006000830152602082019050919050565b6000612f56602f83613640565b91507f4552433732314d657461646174613a2055524920717565727920666f72206e6f60008301527f6e6578697374656e7420746f6b656e00000000000000000000000000000000006020830152604082019050919050565b6000612fbc602183613640565b91507f4552433732313a20617070726f76616c20746f2063757272656e74206f776e6560008301527f72000000000000000000000000000000000000000000000000000000000000006020830152604082019050919050565b6000613022603183613640565b91507f4552433732313a207472616e736665722063616c6c6572206973206e6f74206f60008301527f776e6572206e6f7220617070726f7665640000000000000000000000000000006020830152604082019050919050565b6000613088601783613651565b91507f416363657373436f6e74726f6c3a206163636f756e74200000000000000000006000830152601782019050919050565b60006130c8601683613640565b91507f796f7520617265206e6f7420746865206f776e657221000000000000000000006000830152602082019050919050565b6000613108601183613651565b91507f206973206d697373696e6720726f6c65200000000000000000000000000000006000830152601182019050919050565b6000613148602f83613640565b91507f416363657373436f6e74726f6c3a2063616e206f6e6c792072656e6f756e636560008301527f20726f6c657320666f722073656c6600000000000000000000000000000000006020830152604082019050919050565b6131aa816137e5565b82525050565b60006131bc82856129e8565b91506131c882846129e8565b91508190509392505050565b60006131df8261307b565b91506131eb82856129e8565b91506131f6826130fb565b915061320282846129e8565b91508190509392505050565b60006020820190506132236000830184612949565b92915050565b600060808201905061323e6000830187612949565b61324b6020830186612949565b61325860408301856131a1565b818103606083015261326a8184612976565b905095945050505050565b600060208201905061328a6000830184612958565b92915050565b60006020820190506132a56000830184612967565b92915050565b600060208201905081810360008301526132c581846129af565b905092915050565b600060208201905081810360008301526132e681612a19565b9050919050565b6000602082019050818103600083015261330681612a59565b9050919050565b6000602082019050818103600083015261332681612abf565b9050919050565b6000602082019050818103600083015261334681612aff565b9050919050565b6000602082019050818103600083015261336681612b3f565b9050919050565b6000602082019050818103600083015261338681612ba5565b9050919050565b600060208201905081810360008301526133a681612be5565b9050919050565b600060208201905081810360008301526133c681612c25565b9050919050565b600060208201905081810360008301526133e681612c8b565b9050919050565b6000602082019050818103600083015261340681612cf1565b9050919050565b6000602082019050818103600083015261342681612d57565b9050919050565b6000602082019050818103600083015261344681612dbd565b9050919050565b6000602082019050818103600083015261346681612dfd565b9050919050565b6000602082019050818103600083015261348681612e3d565b9050919050565b600060208201905081810360008301526134a681612ea3565b9050919050565b600060208201905081810360008301526134c681612f09565b9050919050565b600060208201905081810360008301526134e681612f49565b9050919050565b6000602082019050818103600083015261350681612faf565b9050919050565b6000602082019050818103600083015261352681613015565b9050919050565b60006020820190508181036000830152613546816130bb565b9050919050565b600060208201905081810360008301526135668161313b565b9050919050565b600060208201905061358260008301846131a1565b92915050565b6000604051905081810181811067ffffffffffffffff821117156135af576135ae613994565b5b8060405250919050565b600067ffffffffffffffff8211156135d4576135d3613994565b5b601f19601f8301169050602081019050919050565b600067ffffffffffffffff82111561360457613603613994565b5b601f19601f8301169050602081019050919050565b600081519050919050565b600081519050919050565b600082825260208201905092915050565b600082825260208201905092915050565b600081905092915050565b6000613667826137e5565b9150613672836137e5565b9250827fffffffffffffffffffffffffffffffffffffffffffffffffffffffffffffffff038211156136a7576136a6613907565b5b828201905092915050565b60006136bd826137e5565b91506136c8836137e5565b9250826136d8576136d7613936565b5b828204905092915050565b60006136ee826137e5565b91506136f9836137e5565b9250817fffffffffffffffffffffffffffffffffffffffffffffffffffffffffffffffff048311821515161561373257613731613907565b5b828202905092915050565b6000613748826137e5565b9150613753836137e5565b92508282101561376657613765613907565b5b828203905092915050565b600061377c826137c5565b9050919050565b60008115159050919050565b6000819050919050565b60007fffffffff0000000000000000000000000000000000000000000000000000000082169050919050565b600073ffffffffffffffffffffffffffffffffffffffff82169050919050565b6000819050919050565b82818337600083830152505050565b60005b8381101561381c578082015181840152602081019050613801565b8381111561382b576000848401525b50505050565b600061383c826137e5565b915060008214156138505761384f613907565b5b600182039050919050565b6000600282049050600182168061387357607f821691505b6020821081141561388757613886613965565b5b50919050565b6000613898826137e5565b91507fffffffffffffffffffffffffffffffffffffffffffffffffffffffffffffffff8214156138cb576138ca613907565b5b600182019050919050565b60006138e1826137e5565b91506138ec836137e5565b9250826138fc576138fb613936565b5b828206905092915050565b7f4e487b7100000000000000000000000000000000000000000000000000000000600052601160045260246000fd5b7f4e487b7100000000000000000000000000000000000000000000000000000000600052601260045260246000fd5b7f4e487b7100000000000000000000000000000000000000000000000000000000600052602260045260246000fd5b7f4e487b7100000000000000000000000000000000000000000000000000000000600052604160045260246000fd5b6000601f19601f8301169050919050565b6139dd81613771565b81146139e857600080fd5b50565b6139f481613783565b81146139ff57600080fd5b50565b613a0b8161378f565b8114613a1657600080fd5b50565b613a2281613799565b8114613a2d57600080fd5b50565b613a39816137e5565b8114613a4457600080fd5b5056fea2646970667358221220c5118549f69731fb064e5cbc4d371722dd6b678d3b8b68151c04fd900743456764736f6c63430008000033697066733a2f2f516d564e4c3865324e5a4e56747931474c415839656e77785a54356f554b7344515355636e3862536f6d513479612f",
  "immutableReferences": {},
  "source": "// SPDX-License-Identifier: MIT\npragma solidity ^0.8.0;\n\nimport \"@openzeppelin/contracts/token/ERC721/ERC721.sol\";\nimport \"@openzeppelin/contracts/access/AccessControl.sol\";\nimport \"@openzeppelin/contracts/utils/math/SafeMath.sol\";\n\ncontract YangNFT is ERC721, AccessControl{\n\n    uint256 private constant _tokenStartIndex = 1001;\n    uint256 private _tokenIdTracker = _tokenStartIndex;\n    using SafeMath for uint256;\n\n    string public baseTokenURI = \"ipfs://QmVNL8e2NZNVty1GLAX9enwxZT5oUKsDQSUcn8bSomQ4ya/\";\n    uint256 public price  = 10000000000000000; //0.01 eth\n    \n    uint256 private constant MAXSUPPLY = 8000;\n    bytes32 private constant CFO_ROLE = keccak256(\"CFO_ROLE\");\n\n    constructor() ERC721(\"YangNFT\", \"YNFT\") {\n        _setupRole(DEFAULT_ADMIN_ROLE, msg.sender);\n        _setupRole(CFO_ROLE, msg.sender);\n    }\n\n    function supportsInterface(bytes4 interfaceId) public view virtual override(ERC721, AccessControl) returns (bool) {\n        return super.supportsInterface(interfaceId);\n    }\n\n    function _baseURI() internal view virtual override returns (string memory){\n        return baseTokenURI;\n    }\n\n    function setBaseURI(string memory baseURI) public {\n        require(hasRole(DEFAULT_ADMIN_ROLE, msg.sender),\"only admin can set BaseURI!\");\n        baseTokenURI = baseURI;\n    }\n\n    function setPrice(uint256 _price) public {\n        require(hasRole(CFO_ROLE, msg.sender),\"only CFO can set price!\");\n        price = _price;\n    }\n\n    function setCFO(address cfo) public {\n        //require(hasRole(DEFAULT_ADMIN_ROLE,msg.sender),\"only admin can set CFO\");\n        grantRole(CFO_ROLE, cfo);\n    }\n\n    function mint() public payable{\n        require(_tokenIdTracker<MAXSUPPLY+_tokenStartIndex, \"tokenIndex out of scope\");\n        require(msg.value >= price, \"Ether value sent is not correct!\");\n        _safeMint(msg.sender, _tokenIdTracker);\n        _tokenIdTracker = _tokenIdTracker.add(1);\n    }\n\n    function withdraw() public {\n        require(hasRole(DEFAULT_ADMIN_ROLE, msg.sender),\"you are not the owner!\");\n        uint balance = address(this).balance;\n        payable(msg.sender).transfer(balance);\n    }\n\n}\n",
  "sourcePath": "/Users/yang/coding/myNft/nftV1/contracts/nft.sol",
  "compiler": {
    "name": "solc",
    "version": "0.8.0+commit.c7dfd78e.Emscripten.clang"
  },
  "schemaVersion": "3.4.3",
  "updatedAt": "2021-11-10T05:52:14.812Z",
  "networkType": "ethereum",
  "devdoc": {
    "kind": "dev",
    "methods": {
      "approve(address,uint256)": {
        "details": "See {IERC721-approve}."
      },
      "balanceOf(address)": {
        "details": "See {IERC721-balanceOf}."
      },
      "getApproved(uint256)": {
        "details": "See {IERC721-getApproved}."
      },
      "getRoleAdmin(bytes32)": {
        "details": "Returns the admin role that controls `role`. See {grantRole} and {revokeRole}. To change a role's admin, use {_setRoleAdmin}."
      },
      "grantRole(bytes32,address)": {
        "details": "Grants `role` to `account`. If `account` had not been already granted `role`, emits a {RoleGranted} event. Requirements: - the caller must have ``role``'s admin role."
      },
      "hasRole(bytes32,address)": {
        "details": "Returns `true` if `account` has been granted `role`."
      },
      "isApprovedForAll(address,address)": {
        "details": "See {IERC721-isApprovedForAll}."
      },
      "name()": {
        "details": "See {IERC721Metadata-name}."
      },
      "ownerOf(uint256)": {
        "details": "See {IERC721-ownerOf}."
      },
      "renounceRole(bytes32,address)": {
        "details": "Revokes `role` from the calling account. Roles are often managed via {grantRole} and {revokeRole}: this function's purpose is to provide a mechanism for accounts to lose their privileges if they are compromised (such as when a trusted device is misplaced). If the calling account had been granted `role`, emits a {RoleRevoked} event. Requirements: - the caller must be `account`."
      },
      "revokeRole(bytes32,address)": {
        "details": "Revokes `role` from `account`. If `account` had been granted `role`, emits a {RoleRevoked} event. Requirements: - the caller must have ``role``'s admin role."
      },
      "safeTransferFrom(address,address,uint256)": {
        "details": "See {IERC721-safeTransferFrom}."
      },
      "safeTransferFrom(address,address,uint256,bytes)": {
        "details": "See {IERC721-safeTransferFrom}."
      },
      "setApprovalForAll(address,bool)": {
        "details": "See {IERC721-setApprovalForAll}."
      },
      "symbol()": {
        "details": "See {IERC721Metadata-symbol}."
      },
      "tokenURI(uint256)": {
        "details": "See {IERC721Metadata-tokenURI}."
      },
      "transferFrom(address,address,uint256)": {
        "details": "See {IERC721-transferFrom}."
      }
    },
    "version": 1
  },
  "userdoc": {
    "kind": "user",
    "methods": {},
    "version": 1
  }
}